{
  "contractName": "SimpleDutchAuction",
  "abi": [
    {
      "inputs": [],
      "name": "AuctionExpired",
      "type": "error"
    },
    {
      "inputs": [],
      "name": "AuctionNotActive",
      "type": "error"
    },
    {
      "inputs": [],
      "name": "InsufficientPayment",
      "type": "error"
    },
    {
      "inputs": [],
      "name": "InvalidDuration",
      "type": "error"
    },
    {
      "inputs": [],
      "name": "InvalidPriceRange",
      "type": "error"
    },
    {
      "inputs": [],
      "name": "UnauthorizedCaller",
      "type": "error"
    },
    {
      "anonymous": false,
      "inputs": [
        {
          "indexed": true,
          "internalType": "bytes32",
          "name": "auctionId",
          "type": "bytes32"
        }
      ],
      "name": "AuctionCancelled",
      "type": "event"
    },
    {
      "anonymous": false,
      "inputs": [
        {
          "indexed": true,
          "internalType": "bytes32",
          "name": "auctionId",
          "type": "bytes32"
        },
        {
          "indexed": true,
          "internalType": "address",
          "name": "seller",
          "type": "address"
        },
        {
          "indexed": true,
          "internalType": "address",
          "name": "token",
          "type": "address"
        },
        {
          "indexed": false,
          "internalType": "uint256",
          "name": "amount",
          "type": "uint256"
        },
        {
          "indexed": false,
          "internalType": "uint256",
          "name": "startPrice",
          "type": "uint256"
        },
        {
          "indexed": false,
          "internalType": "uint256",
          "name": "endPrice",
          "type": "uint256"
        },
        {
          "indexed": false,
          "internalType": "uint256",
          "name": "duration",
          "type": "uint256"
        }
      ],
      "name": "AuctionCreated",
      "type": "event"
    },
    {
      "anonymous": false,
      "inputs": [
        {
          "indexed": true,
          "internalType": "bytes32",
          "name": "auctionId",
          "type": "bytes32"
        },
        {
          "indexed": true,
          "internalType": "address",
          "name": "buyer",
          "type": "address"
        },
        {
          "indexed": false,
          "internalType": "uint256",
          "name": "price",
          "type": "uint256"
        },
        {
          "indexed": false,
          "internalType": "uint256",
          "name": "amount",
          "type": "uint256"
        }
      ],
      "name": "AuctionSettled",
      "type": "event"
    },
    {
      "inputs": [
        {
          "internalType": "bytes32",
          "name": "",
          "type": "bytes32"
        }
      ],
      "name": "auctions",
      "outputs": [
        {
          "internalType": "uint256",
          "name": "startPrice",
          "type": "uint256"
        },
        {
          "internalType": "uint256",
          "name": "endPrice",
          "type": "uint256"
        },
        {
          "internalType": "uint256",
          "name": "startTime",
          "type": "uint256"
        },
        {
          "internalType": "uint256",
          "name": "duration",
          "type": "uint256"
        },
        {
          "internalType": "address",
          "name": "token",
          "type": "address"
        },
        {
          "internalType": "uint256",
          "name": "amount",
          "type": "uint256"
        },
        {
          "internalType": "address",
          "name": "seller",
          "type": "address"
        },
        {
          "internalType": "bool",
          "name": "active",
          "type": "bool"
        }
      ],
      "stateMutability": "view",
      "type": "function"
    },
    {
      "inputs": [
        {
          "internalType": "bytes32",
          "name": "auctionId",
          "type": "bytes32"
        }
      ],
      "name": "cancelAuction",
      "outputs": [],
      "stateMutability": "nonpayable",
      "type": "function"
    },
    {
      "inputs": [
        {
          "internalType": "bytes32",
          "name": "auctionId",
          "type": "bytes32"
        },
        {
          "internalType": "address",
          "name": "token",
          "type": "address"
        },
        {
          "internalType": "uint256",
          "name": "amount",
          "type": "uint256"
        },
        {
          "internalType": "uint256",
          "name": "startPrice",
          "type": "uint256"
        },
        {
          "internalType": "uint256",
          "name": "endPrice",
          "type": "uint256"
        },
        {
          "internalType": "uint256",
          "name": "duration",
          "type": "uint256"
        }
      ],
      "name": "createAuction",
      "outputs": [],
      "stateMutability": "nonpayable",
      "type": "function"
    },
    {
      "inputs": [
        {
          "internalType": "bytes32",
          "name": "auctionId",
          "type": "bytes32"
        }
      ],
      "name": "getCurrentPrice",
      "outputs": [
        {
          "internalType": "uint256",
          "name": "",
          "type": "uint256"
        }
      ],
      "stateMutability": "view",
      "type": "function"
    },
    {
      "inputs": [
        {
          "internalType": "bytes32",
          "name": "auctionId",
          "type": "bytes32"
        }
      ],
      "name": "isAuctionActive",
      "outputs": [
        {
          "internalType": "bool",
          "name": "",
          "type": "bool"
        }
      ],
      "stateMutability": "view",
      "type": "function"
    },
    {
      "inputs": [
        {
          "internalType": "bytes32",
          "name": "auctionId",
          "type": "bytes32"
        }
      ],
      "name": "settleAuction",
      "outputs": [],
      "stateMutability": "payable",
      "type": "function"
    }
  ],
  "bytecode": "0x608060405234801561001057600080fd5b50d3801561001d57600080fd5b50d2801561002a57600080fd5b50610f8c8061003a6000396000f3fe6080604052600436106100555760003560e01c8063161e444e1461005a5780631edbc5be146100b15780633ef4d1301461010f5780637a96c7ff14610152578063b625e31714610195578063ec1f1a52146101ec575b600080fd5b34801561006657600080fd5b50d3801561007357600080fd5b50d2801561008057600080fd5b5061009b60048036038101906100969190610b73565b610208565b6040516100a89190610c75565b60405180910390f35b3480156100bd57600080fd5b50d380156100ca57600080fd5b50d280156100d757600080fd5b506100f260048036038101906100ed9190610b73565b6103d9565b604051610106989796959493929190610cfe565b60405180910390f35b34801561011b57600080fd5b50d3801561012857600080fd5b50d2801561013557600080fd5b50610150600480360381019061014b9190610b73565b61046e565b005b34801561015e57600080fd5b50d3801561016b57600080fd5b50d2801561017857600080fd5b50610193600480360381019061018e9190610ba0565b6105a3565b005b3480156101a157600080fd5b50d380156101ae57600080fd5b50d280156101bb57600080fd5b506101d660048036038101906101d19190610b73565b610843565b6040516101e39190610c5a565b60405180910390f35b61020660048036038101906102019190610b73565b61098a565b005b60008060008084815260200190815260200160002060405180610100016040529081600082015481526020016001820154815260200160028201548152602001600382015481526020016004820160009054906101000a900473ffffffffffffffffffffffffffffffffffffffff1673ffffffffffffffffffffffffffffffffffffffff1673ffffffffffffffffffffffffffffffffffffffff168152602001600582015481526020016006820160009054906101000a900473ffffffffffffffffffffffffffffffffffffffff1673ffffffffffffffffffffffffffffffffffffffff1673ffffffffffffffffffffffffffffffffffffffff1681526020016006820160149054906101000a900460ff16151515158152505090508060e0015161035f576040517f69b8d0fe00000000000000000000000000000000000000000000000000000000815260040160405180910390fd5b60008160400151426103719190610e07565b90508160600151811061038c578160200151925050506103d4565b6000826060015182846020015185600001516103a89190610e07565b6103b29190610dad565b6103bc9190610d7c565b90508083600001516103ce9190610e07565b93505050505b919050565b60006020528060005260406000206000915090508060000154908060010154908060020154908060030154908060040160009054906101000a900473ffffffffffffffffffffffffffffffffffffffff16908060050154908060060160009054906101000a900473ffffffffffffffffffffffffffffffffffffffff16908060060160149054906101000a900460ff16905088565b600080600083815260200190815260200160002090508060060160149054906101000a900460ff166104cc576040517f69b8d0fe00000000000000000000000000000000000000000000000000000000815260040160405180910390fd5b3373ffffffffffffffffffffffffffffffffffffffff168160060160009054906101000a900473ffffffffffffffffffffffffffffffffffffffff1673ffffffffffffffffffffffffffffffffffffffff1614610555576040517f5c427cd900000000000000000000000000000000000000000000000000000000815260040160405180910390fd5b60008160060160146101000a81548160ff021916908315150217905550817fd88fab4b08bf76f15cf2d6e03e382acf1edd6790ab82967e406abac37db2028860405160405180910390a25050565b8183116105dc576040517f47ebe17200000000000000000000000000000000000000000000000000000000815260040160405180910390fd5b6000811415610617576040517f7616640100000000000000000000000000000000000000000000000000000000815260040160405180910390fd5b60008087815260200190815260200160002060060160149054906101000a900460ff1615610671576040517f69b8d0fe00000000000000000000000000000000000000000000000000000000815260040160405180910390fd5b6040518061010001604052808481526020018381526020014281526020018281526020018673ffffffffffffffffffffffffffffffffffffffff1681526020018581526020013373ffffffffffffffffffffffffffffffffffffffff168152602001600115158152506000808881526020019081526020016000206000820151816000015560208201518160010155604082015181600201556060820151816003015560808201518160040160006101000a81548173ffffffffffffffffffffffffffffffffffffffff021916908373ffffffffffffffffffffffffffffffffffffffff16021790555060a0820151816005015560c08201518160060160006101000a81548173ffffffffffffffffffffffffffffffffffffffff021916908373ffffffffffffffffffffffffffffffffffffffff16021790555060e08201518160060160146101000a81548160ff0219169083151502179055509050508473ffffffffffffffffffffffffffffffffffffffff163373ffffffffffffffffffffffffffffffffffffffff16877ff22938c4fc67d67783dff47ab46e94951705b0261ab65c6379ab5f23b2bd0193878787876040516108339493929190610cb9565b60405180910390a4505050505050565b60008060008084815260200190815260200160002060405180610100016040529081600082015481526020016001820154815260200160028201548152602001600382015481526020016004820160009054906101000a900473ffffffffffffffffffffffffffffffffffffffff1673ffffffffffffffffffffffffffffffffffffffff1673ffffffffffffffffffffffffffffffffffffffff168152602001600582015481526020016006820160009054906101000a900473ffffffffffffffffffffffffffffffffffffffff1673ffffffffffffffffffffffffffffffffffffffff1673ffffffffffffffffffffffffffffffffffffffff1681526020016006820160149054906101000a900460ff16151515158152505090508060e001518015610982575080606001518160400151426109809190610e07565b105b915050919050565b600080600083815260200190815260200160002090508060060160149054906101000a900460ff166109e8576040517f69b8d0fe00000000000000000000000000000000000000000000000000000000815260040160405180910390fd5b60006109f383610208565b90506000670de0b6b3a7640000836005015483610a109190610dad565b610a1a9190610d7c565b905080341015610a56576040517fcd1c886700000000000000000000000000000000000000000000000000000000815260040160405180910390fd5b60008360060160146101000a81548160ff0219169083151502179055503373ffffffffffffffffffffffffffffffffffffffff16847f9bd679988afa62c3a2a077b5aca0a941959adcdc7fff376f0846a733780cf813848660050154604051610ac0929190610c90565b60405180910390a380341115610b23573373ffffffffffffffffffffffffffffffffffffffff166108fc8234610af69190610e07565b9081150290604051600060405180830381858888f19350505050158015610b21573d6000803e3d6000fd5b505b50505050565b600081359050610b3881610f11565b610b4181610e3b565b905092915050565b600081359050610b5881610f28565b92915050565b600081359050610b6d81610f3f565b92915050565b600060208284031215610b8957610b88610f0c565b5b6000610b9784828501610b49565b91505092915050565b60008060008060008060c08789031215610bbd57610bbc610f0c565b5b6000610bcb89828a01610b49565b9650506020610bdc89828a01610b29565b9550506040610bed89828a01610b5e565b9450506060610bfe89828a01610b5e565b9350506080610c0f89828a01610b5e565b92505060a0610c2089828a01610b5e565b9150509295509295509295565b610c3681610e3b565b82525050565b610c4581610e4d565b82525050565b610c5481610ea4565b82525050565b6000602082019050610c6f6000830184610c3c565b92915050565b6000602082019050610c8a6000830184610c4b565b92915050565b6000604082019050610ca56000830185610c4b565b610cb26020830184610c4b565b9392505050565b6000608082019050610cce6000830187610c4b565b610cdb6020830186610c4b565b610ce86040830185610c4b565b610cf56060830184610c4b565b95945050505050565b600061010082019050610d14600083018b610c4b565b610d21602083018a610c4b565b610d2e6040830189610c4b565b610d3b6060830188610c4b565b610d486080830187610c2d565b610d5560a0830186610c4b565b610d6260c0830185610c2d565b610d6f60e0830184610c3c565b9998505050505050505050565b6000610d8782610ea4565b9150610d9283610ea4565b925082610da257610da1610edd565b5b828204905092915050565b6000610db882610ea4565b9150610dc383610ea4565b9250817fffffffffffffffffffffffffffffffffffffffffffffffffffffffffffffffff0483118215151615610dfc57610dfb610eae565b5b828202905092915050565b6000610e1282610ea4565b9150610e1d83610ea4565b925082821015610e3057610e2f610eae565b5b828203905092915050565b6000610e4682610e63565b9050919050565b60008115159050919050565b6000819050919050565b600073ffffffffffffffffffffffffffffffffffffffff82169050919050565b600074ffffffffffffffffffffffffffffffffffffffffff82169050919050565b6000819050919050565b7f4e487b7100000000000000000000000000000000000000000000000000000000600052601160045260246000fd5b7f4e487b7100000000000000000000000000000000000000000000000000000000600052601260045260246000fd5b600080fd5b610f1a81610e83565b8114610f2557600080fd5b50565b610f3181610e59565b8114610f3c57600080fd5b50565b610f4881610ea4565b8114610f5357600080fd5b5056fea26474726f6e58221220bea1cbe3eae6c80a8b44221dc6dcf13ac738abeb1f66c050a5209f7c7a6af08d64736f6c63430008060033",
  "source": "// SPDX-License-Identifier: MIT\npragma solidity ^0.8.6;\n\n/**\n * @title Simplified Dutch Auction for UniteDefi (No dependencies)\n * @notice Implements linear price decrease model for cross-chain swaps\n * @dev Standalone contract with no external dependencies for easy deployment\n */\ncontract SimpleDutchAuction {\n    struct Auction {\n        uint256 startPrice;\n        uint256 endPrice;\n        uint256 startTime;\n        uint256 duration;\n        address token;\n        uint256 amount;\n        address seller;\n        bool active;\n    }\n\n    mapping(bytes32 => Auction) public auctions;\n    \n    event AuctionCreated(\n        bytes32 indexed auctionId,\n        address indexed seller,\n        address indexed token,\n        uint256 amount,\n        uint256 startPrice,\n        uint256 endPrice,\n        uint256 duration\n    );\n    \n    event AuctionSettled(\n        bytes32 indexed auctionId,\n        address indexed buyer,\n        uint256 price,\n        uint256 amount\n    );\n    \n    event AuctionCancelled(bytes32 indexed auctionId);\n\n    error AuctionNotActive();\n    error AuctionExpired();\n    error InvalidPriceRange();\n    error InvalidDuration();\n    error UnauthorizedCaller();\n    error InsufficientPayment();\n\n    /**\n     * @notice Creates a new dutch auction\n     */\n    function createAuction(\n        bytes32 auctionId,\n        address token,\n        uint256 amount,\n        uint256 startPrice,\n        uint256 endPrice,\n        uint256 duration\n    ) external {\n        if (startPrice <= endPrice) revert InvalidPriceRange();\n        if (duration == 0) revert InvalidDuration();\n        if (auctions[auctionId].active) revert AuctionNotActive();\n\n        auctions[auctionId] = Auction({\n            startPrice: startPrice,\n            endPrice: endPrice,\n            startTime: block.timestamp,\n            duration: duration,\n            token: token,\n            amount: amount,\n            seller: msg.sender,\n            active: true\n        });\n\n        emit AuctionCreated(\n            auctionId,\n            msg.sender,\n            token,\n            amount,\n            startPrice,\n            endPrice,\n            duration\n        );\n    }\n\n    /**\n     * @notice Calculates current auction price\n     */\n    function getCurrentPrice(bytes32 auctionId) public view returns (uint256) {\n        Auction memory auction = auctions[auctionId];\n        if (!auction.active) revert AuctionNotActive();\n        \n        uint256 elapsed = block.timestamp - auction.startTime;\n        if (elapsed >= auction.duration) {\n            return auction.endPrice;\n        }\n        \n        uint256 priceDecrease = (auction.startPrice - auction.endPrice) * elapsed / auction.duration;\n        return auction.startPrice - priceDecrease;\n    }\n\n    /**\n     * @notice Settles an auction at current price\n     */\n    function settleAuction(bytes32 auctionId) external payable {\n        Auction storage auction = auctions[auctionId];\n        if (!auction.active) revert AuctionNotActive();\n        \n        uint256 currentPrice = getCurrentPrice(auctionId);\n        uint256 totalCost = currentPrice * auction.amount / 1e18;\n        \n        if (msg.value < totalCost) revert InsufficientPayment();\n        \n        auction.active = false;\n        \n        emit AuctionSettled(auctionId, msg.sender, currentPrice, auction.amount);\n        \n        // Return excess payment\n        if (msg.value > totalCost) {\n            payable(msg.sender).transfer(msg.value - totalCost);\n        }\n    }\n\n    /**\n     * @notice Cancels an active auction\n     */\n    function cancelAuction(bytes32 auctionId) external {\n        Auction storage auction = auctions[auctionId];\n        if (!auction.active) revert AuctionNotActive();\n        if (auction.seller != msg.sender) revert UnauthorizedCaller();\n        \n        auction.active = false;\n        emit AuctionCancelled(auctionId);\n    }\n\n    /**\n     * @notice Checks if auction is still active\n     */\n    function isAuctionActive(bytes32 auctionId) external view returns (bool) {\n        Auction memory auction = auctions[auctionId];\n        return auction.active && (block.timestamp - auction.startTime < auction.duration);\n    }\n}",
  "sourcePath": "/Users/gabrielantonyxaviour/Documents/projects/unite-defi/resolver-branches/tron-integration/tron-contracts/tron-contracts/contracts/SimpleDutchAuction.sol",
  "compiler": {
    "name": "solc",
    "version": "0.8.6+commit.0e36fba0.mod.Emscripten.clang"
  },
  "schemaVersion": "2.0.1",
  "updatedAt": "2025-07-27T13:34:11.407Z"
}