{
  "contractName": "SimpleEscrow",
  "abi": [
    {
      "anonymous": false,
      "inputs": [
        {
          "indexed": true,
          "internalType": "bytes32",
          "name": "orderId",
          "type": "bytes32"
        },
        {
          "indexed": false,
          "internalType": "uint256",
          "name": "amount",
          "type": "uint256"
        },
        {
          "indexed": false,
          "internalType": "bytes32",
          "name": "hashlock",
          "type": "bytes32"
        }
      ],
      "name": "EscrowCreated",
      "type": "event"
    },
    {
      "anonymous": false,
      "inputs": [
        {
          "indexed": true,
          "internalType": "bytes32",
          "name": "orderId",
          "type": "bytes32"
        }
      ],
      "name": "EscrowRefunded",
      "type": "event"
    },
    {
      "anonymous": false,
      "inputs": [
        {
          "indexed": true,
          "internalType": "bytes32",
          "name": "orderId",
          "type": "bytes32"
        },
        {
          "indexed": false,
          "internalType": "bytes32",
          "name": "preimage",
          "type": "bytes32"
        }
      ],
      "name": "EscrowWithdrawn",
      "type": "event"
    },
    {
      "inputs": [
        {
          "internalType": "bytes32",
          "name": "orderId",
          "type": "bytes32"
        },
        {
          "internalType": "address",
          "name": "beneficiary",
          "type": "address"
        },
        {
          "internalType": "bytes32",
          "name": "hashlock",
          "type": "bytes32"
        },
        {
          "internalType": "uint256",
          "name": "timelock",
          "type": "uint256"
        }
      ],
      "name": "createEscrow",
      "outputs": [],
      "stateMutability": "payable",
      "type": "function"
    },
    {
      "inputs": [
        {
          "internalType": "bytes32",
          "name": "",
          "type": "bytes32"
        }
      ],
      "name": "escrows",
      "outputs": [
        {
          "internalType": "bytes32",
          "name": "orderId",
          "type": "bytes32"
        },
        {
          "internalType": "uint256",
          "name": "amount",
          "type": "uint256"
        },
        {
          "internalType": "address",
          "name": "depositor",
          "type": "address"
        },
        {
          "internalType": "address",
          "name": "beneficiary",
          "type": "address"
        },
        {
          "internalType": "bytes32",
          "name": "hashlock",
          "type": "bytes32"
        },
        {
          "internalType": "uint256",
          "name": "timelock",
          "type": "uint256"
        },
        {
          "internalType": "bool",
          "name": "withdrawn",
          "type": "bool"
        },
        {
          "internalType": "bool",
          "name": "refunded",
          "type": "bool"
        }
      ],
      "stateMutability": "view",
      "type": "function"
    },
    {
      "inputs": [
        {
          "internalType": "bytes32",
          "name": "orderId",
          "type": "bytes32"
        }
      ],
      "name": "getEscrow",
      "outputs": [
        {
          "components": [
            {
              "internalType": "bytes32",
              "name": "orderId",
              "type": "bytes32"
            },
            {
              "internalType": "uint256",
              "name": "amount",
              "type": "uint256"
            },
            {
              "internalType": "address",
              "name": "depositor",
              "type": "address"
            },
            {
              "internalType": "address",
              "name": "beneficiary",
              "type": "address"
            },
            {
              "internalType": "bytes32",
              "name": "hashlock",
              "type": "bytes32"
            },
            {
              "internalType": "uint256",
              "name": "timelock",
              "type": "uint256"
            },
            {
              "internalType": "bool",
              "name": "withdrawn",
              "type": "bool"
            },
            {
              "internalType": "bool",
              "name": "refunded",
              "type": "bool"
            }
          ],
          "internalType": "struct SimpleEscrow.EscrowData",
          "name": "",
          "type": "tuple"
        }
      ],
      "stateMutability": "view",
      "type": "function"
    },
    {
      "inputs": [
        {
          "internalType": "bytes32",
          "name": "orderId",
          "type": "bytes32"
        },
        {
          "internalType": "bytes32",
          "name": "preimage",
          "type": "bytes32"
        }
      ],
      "name": "isValidSecret",
      "outputs": [
        {
          "internalType": "bool",
          "name": "",
          "type": "bool"
        }
      ],
      "stateMutability": "view",
      "type": "function"
    },
    {
      "inputs": [
        {
          "internalType": "bytes32",
          "name": "orderId",
          "type": "bytes32"
        }
      ],
      "name": "refund",
      "outputs": [],
      "stateMutability": "nonpayable",
      "type": "function"
    },
    {
      "inputs": [
        {
          "internalType": "bytes32",
          "name": "orderId",
          "type": "bytes32"
        },
        {
          "internalType": "bytes32",
          "name": "preimage",
          "type": "bytes32"
        }
      ],
      "name": "withdraw",
      "outputs": [],
      "stateMutability": "nonpayable",
      "type": "function"
    }
  ],
  "bytecode": "0x608060405234801561001057600080fd5b50d3801561001d57600080fd5b50d2801561002a57600080fd5b506114968061003a6000396000f3fe6080604052600436106100555760003560e01c80632d83549c1461005a5780634287e358146100b8578063636151491461010f5780637249fbb614610152578063f023b81114610195578063f6276625146101ec575b600080fd5b34801561006657600080fd5b50d3801561007357600080fd5b50d2801561008057600080fd5b5061009b60048036038101906100969190610ca3565b610208565b6040516100af989796959493929190611034565b60405180910390f35b3480156100c457600080fd5b50d380156100d157600080fd5b50d280156100de57600080fd5b506100f960048036038101906100f49190610d37565b6102aa565b6040516101069190610ffe565b60405180910390f35b34801561011b57600080fd5b50d3801561012857600080fd5b50d2801561013557600080fd5b50610150600480360381019061014b9190610d37565b6102f2565b005b34801561015e57600080fd5b50d3801561016b57600080fd5b50d2801561017857600080fd5b50610193600480360381019061018e9190610ca3565b6105ba565b005b3480156101a157600080fd5b50d380156101ae57600080fd5b50d280156101bb57600080fd5b506101d660048036038101906101d19190610ca3565b610809565b6040516101e391906111d2565b60405180910390f35b61020660048036038101906102019190610cd0565b610940565b005b60006020528060005260406000206000915090508060000154908060010154908060020160009054906101000a900473ffffffffffffffffffffffffffffffffffffffff16908060030160009054906101000a900473ffffffffffffffffffffffffffffffffffffffff16908060040154908060050154908060060160009054906101000a900460ff16908060060160019054906101000a900460ff16905088565b600080600084815260200190815260200160002060040154826040516020016102d39190610fe3565b6040516020818303038152906040528051906020012014905092915050565b600080600084815260200190815260200160002090508060030160009054906101000a900473ffffffffffffffffffffffffffffffffffffffff1673ffffffffffffffffffffffffffffffffffffffff163373ffffffffffffffffffffffffffffffffffffffff161461039a576040517f08c379a000000000000000000000000000000000000000000000000000000000815260040161039190611172565b60405180910390fd5b8060060160009054906101000a900460ff16156103ec576040517f08c379a00000000000000000000000000000000000000000000000000000000081526004016103e390611152565b60405180910390fd5b8060060160019054906101000a900460ff161561043e576040517f08c379a000000000000000000000000000000000000000000000000000000000815260040161043590611192565b60405180910390fd5b8060050154421115610485576040517f08c379a000000000000000000000000000000000000000000000000000000000815260040161047c906110b2565b60405180910390fd5b80600401548260405160200161049b9190610fe3565b60405160208183030381529060405280519060200120146104f1576040517f08c379a00000000000000000000000000000000000000000000000000000000081526004016104e8906110f2565b60405180910390fd5b60018160060160006101000a81548160ff0219169083151502179055508060030160009054906101000a900473ffffffffffffffffffffffffffffffffffffffff1673ffffffffffffffffffffffffffffffffffffffff166108fc82600101549081150290604051600060405180830381858888f1935050505015801561057c573d6000803e3d6000fd5b50827fb43c3b34895c7ebb1941c852d7c176c0f12fc1746336bbc98d2163cefebf677c836040516105ad9190611019565b60405180910390a2505050565b600080600083815260200190815260200160002090508060020160009054906101000a900473ffffffffffffffffffffffffffffffffffffffff1673ffffffffffffffffffffffffffffffffffffffff163373ffffffffffffffffffffffffffffffffffffffff1614610662576040517f08c379a000000000000000000000000000000000000000000000000000000000815260040161065990611112565b60405180910390fd5b8060060160009054906101000a900460ff16156106b4576040517f08c379a00000000000000000000000000000000000000000000000000000000081526004016106ab90611152565b60405180910390fd5b8060060160019054906101000a900460ff1615610706576040517f08c379a00000000000000000000000000000000000000000000000000000000081526004016106fd90611192565b60405180910390fd5b8060050154421161074c576040517f08c379a000000000000000000000000000000000000000000000000000000000815260040161074390611132565b60405180910390fd5b60018160060160016101000a81548160ff0219169083151502179055508060020160009054906101000a900473ffffffffffffffffffffffffffffffffffffffff1673ffffffffffffffffffffffffffffffffffffffff166108fc82600101549081150290604051600060405180830381858888f193505050501580156107d7573d6000803e3d6000fd5b50817f7b08f2d2a35d68f512d4ee819cc6c616e61aa7cd7f7b0855d95ba090d84dc43660405160405180910390a25050565b610811610bde565b6000808381526020019081526020016000206040518061010001604052908160008201548152602001600182015481526020016002820160009054906101000a900473ffffffffffffffffffffffffffffffffffffffff1673ffffffffffffffffffffffffffffffffffffffff1673ffffffffffffffffffffffffffffffffffffffff1681526020016003820160009054906101000a900473ffffffffffffffffffffffffffffffffffffffff1673ffffffffffffffffffffffffffffffffffffffff1673ffffffffffffffffffffffffffffffffffffffff16815260200160048201548152602001600582015481526020016006820160009054906101000a900460ff161515151581526020016006820160019054906101000a900460ff1615151515815250509050919050565b60003411610983576040517f08c379a000000000000000000000000000000000000000000000000000000000815260040161097a906111b2565b60405180910390fd5b600073ffffffffffffffffffffffffffffffffffffffff1660008086815260200190815260200160002060020160009054906101000a900473ffffffffffffffffffffffffffffffffffffffff1673ffffffffffffffffffffffffffffffffffffffff1614610a27576040517f08c379a0000000000000000000000000000000000000000000000000000000008152600401610a1e906110d2565b60405180910390fd5b6040518061010001604052808581526020013481526020013373ffffffffffffffffffffffffffffffffffffffff1681526020018473ffffffffffffffffffffffffffffffffffffffff16815260200183815260200182815260200160001515815260200160001515815250600080868152602001908152602001600020600082015181600001556020820151816001015560408201518160020160006101000a81548173ffffffffffffffffffffffffffffffffffffffff021916908373ffffffffffffffffffffffffffffffffffffffff16021790555060608201518160030160006101000a81548173ffffffffffffffffffffffffffffffffffffffff021916908373ffffffffffffffffffffffffffffffffffffffff1602179055506080820151816004015560a0820151816005015560c08201518160060160006101000a81548160ff02191690831515021790555060e08201518160060160016101000a81548160ff021916908315150217905550905050837fa41ca26069ecb9ab70b4fa58e2b49eb32ce3e693f3893f7a9715b978db2f60113484604051610bd09291906111ee565b60405180910390a250505050565b6040518061010001604052806000801916815260200160008152602001600073ffffffffffffffffffffffffffffffffffffffff168152602001600073ffffffffffffffffffffffffffffffffffffffff16815260200160008019168152602001600081526020016000151581526020016000151581525090565b600081359050610c688161141b565b610c7181611228565b905092915050565b600081359050610c8881611432565b92915050565b600081359050610c9d81611449565b92915050565b600060208284031215610cb957610cb86112a5565b5b6000610cc784828501610c79565b91505092915050565b60008060008060808587031215610cea57610ce96112a5565b5b6000610cf887828801610c79565b9450506020610d0987828801610c59565b9350506040610d1a87828801610c79565b9250506060610d2b87828801610c8e565b91505092959194509250565b60008060408385031215610d4e57610d4d6112a5565b5b6000610d5c85828601610c79565b9250506020610d6d85828601610c79565b9150509250929050565b610d8081611228565b82525050565b610d8f81611228565b82525050565b610d9e8161123a565b82525050565b610dad8161123a565b82525050565b610dbc81611246565b82525050565b610dcb81611246565b82525050565b610de2610ddd82611246565b61129b565b82525050565b6000610df5601083611217565b9150610e00826112aa565b602082019050919050565b6000610e18600d83611217565b9150610e23826112d3565b602082019050919050565b6000610e3b600e83611217565b9150610e46826112fc565b602082019050919050565b6000610e5e600d83611217565b9150610e6982611325565b602082019050919050565b6000610e81601483611217565b9150610e8c8261134e565b602082019050919050565b6000610ea4601183611217565b9150610eaf82611377565b602082019050919050565b6000610ec7600f83611217565b9150610ed2826113a0565b602082019050919050565b6000610eea601083611217565b9150610ef5826113c9565b602082019050919050565b6000610f0d600d83611217565b9150610f18826113f2565b602082019050919050565b61010082016000820151610f3a6000850182610db3565b506020820151610f4d6020850182610fc5565b506040820151610f606040850182610d77565b506060820151610f736060850182610d77565b506080820151610f866080850182610db3565b5060a0820151610f9960a0850182610fc5565b5060c0820151610fac60c0850182610d95565b5060e0820151610fbf60e0850182610d95565b50505050565b610fce81611291565b82525050565b610fdd81611291565b82525050565b6000610fef8284610dd1565b60208201915081905092915050565b60006020820190506110136000830184610da4565b92915050565b600060208201905061102e6000830184610dc2565b92915050565b60006101008201905061104a600083018b610dc2565b611057602083018a610fd4565b6110646040830189610d86565b6110716060830188610d86565b61107e6080830187610dc2565b61108b60a0830186610fd4565b61109860c0830185610da4565b6110a560e0830184610da4565b9998505050505050505050565b600060208201905081810360008301526110cb81610de8565b9050919050565b600060208201905081810360008301526110eb81610e0b565b9050919050565b6000602082019050818103600083015261110b81610e2e565b9050919050565b6000602082019050818103600083015261112b81610e51565b9050919050565b6000602082019050818103600083015261114b81610e74565b9050919050565b6000602082019050818103600083015261116b81610e97565b9050919050565b6000602082019050818103600083015261118b81610eba565b9050919050565b600060208201905081810360008301526111ab81610edd565b9050919050565b600060208201905081810360008301526111cb81610f00565b9050919050565b6000610100820190506111e86000830184610f23565b92915050565b60006040820190506112036000830185610fd4565b6112106020830184610dc2565b9392505050565b600082825260208201905092915050565b600061123382611250565b9050919050565b60008115159050919050565b6000819050919050565b600073ffffffffffffffffffffffffffffffffffffffff82169050919050565b600074ffffffffffffffffffffffffffffffffffffffffff82169050919050565b6000819050919050565b6000819050919050565b600080fd5b7f54696d656c6f636b206578706972656400000000000000000000000000000000600082015250565b7f457363726f772065786973747300000000000000000000000000000000000000600082015250565b7f496e76616c696420736563726574000000000000000000000000000000000000600082015250565b7f4e6f74206465706f7369746f7200000000000000000000000000000000000000600082015250565b7f54696d656c6f636b206e6f742065787069726564000000000000000000000000600082015250565b7f416c72656164792077697468647261776e000000000000000000000000000000600082015250565b7f4e6f742062656e65666963696172790000000000000000000000000000000000600082015250565b7f416c726561647920726566756e64656400000000000000000000000000000000600082015250565b7f4e6f2076616c75652073656e7400000000000000000000000000000000000000600082015250565b61142481611270565b811461142f57600080fd5b50565b61143b81611246565b811461144657600080fd5b50565b61145281611291565b811461145d57600080fd5b5056fea26474726f6e58221220f07a10337948922fba6eb2afc4f3152ffc1443e03590a9e6575bdcd8c098268c64736f6c63430008060033",
  "source": "// SPDX-License-Identifier: MIT\npragma solidity ^0.8.6;\n\n/**\n * @title SimpleEscrow - Basic HTLC escrow\n */\ncontract SimpleEscrow {\n    struct EscrowData {\n        bytes32 orderId;\n        uint256 amount;\n        address depositor;\n        address beneficiary;\n        bytes32 hashlock;\n        uint256 timelock;\n        bool withdrawn;\n        bool refunded;\n    }\n    \n    mapping(bytes32 => EscrowData) public escrows;\n    \n    event EscrowCreated(bytes32 indexed orderId, uint256 amount, bytes32 hashlock);\n    event EscrowWithdrawn(bytes32 indexed orderId, bytes32 preimage);\n    event EscrowRefunded(bytes32 indexed orderId);\n    \n    function createEscrow(\n        bytes32 orderId,\n        address beneficiary,\n        bytes32 hashlock,\n        uint256 timelock\n    ) external payable {\n        require(msg.value > 0, \"No value sent\");\n        require(escrows[orderId].depositor == address(0), \"Escrow exists\");\n        \n        escrows[orderId] = EscrowData({\n            orderId: orderId,\n            amount: msg.value,\n            depositor: msg.sender,\n            beneficiary: beneficiary,\n            hashlock: hashlock,\n            timelock: timelock,\n            withdrawn: false,\n            refunded: false\n        });\n        \n        emit EscrowCreated(orderId, msg.value, hashlock);\n    }\n    \n    function withdraw(bytes32 orderId, bytes32 preimage) external {\n        EscrowData storage escrow = escrows[orderId];\n        require(msg.sender == escrow.beneficiary, \"Not beneficiary\");\n        require(!escrow.withdrawn, \"Already withdrawn\");\n        require(!escrow.refunded, \"Already refunded\");\n        require(block.timestamp <= escrow.timelock, \"Timelock expired\");\n        require(keccak256(abi.encodePacked(preimage)) == escrow.hashlock, \"Invalid secret\");\n        \n        escrow.withdrawn = true;\n        payable(escrow.beneficiary).transfer(escrow.amount);\n        \n        emit EscrowWithdrawn(orderId, preimage);\n    }\n    \n    function refund(bytes32 orderId) external {\n        EscrowData storage escrow = escrows[orderId];\n        require(msg.sender == escrow.depositor, \"Not depositor\");\n        require(!escrow.withdrawn, \"Already withdrawn\");\n        require(!escrow.refunded, \"Already refunded\");\n        require(block.timestamp > escrow.timelock, \"Timelock not expired\");\n        \n        escrow.refunded = true;\n        payable(escrow.depositor).transfer(escrow.amount);\n        \n        emit EscrowRefunded(orderId);\n    }\n    \n    function getEscrow(bytes32 orderId) external view returns (EscrowData memory) {\n        return escrows[orderId];\n    }\n    \n    function isValidSecret(bytes32 orderId, bytes32 preimage) external view returns (bool) {\n        return keccak256(abi.encodePacked(preimage)) == escrows[orderId].hashlock;\n    }\n}",
  "sourcePath": "/Users/gabrielantonyxaviour/Documents/projects/unite-defi/resolver-branches/tron-integration/tron-contracts/tron-contracts/contracts/SimpleEscrow.sol",
  "compiler": {
    "name": "solc",
    "version": "0.8.6+commit.0e36fba0.mod.Emscripten.clang"
  },
  "schemaVersion": "2.0.1",
  "updatedAt": "2025-07-27T14:50:29.664Z"
}