{
  "contractName": "SimpleTronAuction",
  "abi": [
    {
      "anonymous": false,
      "inputs": [
        {
          "indexed": true,
          "internalType": "bytes32",
          "name": "auctionId",
          "type": "bytes32"
        }
      ],
      "name": "AuctionCancelled",
      "type": "event"
    },
    {
      "anonymous": false,
      "inputs": [
        {
          "indexed": true,
          "internalType": "bytes32",
          "name": "auctionId",
          "type": "bytes32"
        },
        {
          "indexed": true,
          "internalType": "address",
          "name": "seller",
          "type": "address"
        },
        {
          "indexed": true,
          "internalType": "address",
          "name": "token",
          "type": "address"
        },
        {
          "indexed": false,
          "internalType": "uint256",
          "name": "amount",
          "type": "uint256"
        },
        {
          "indexed": false,
          "internalType": "uint256",
          "name": "startPrice",
          "type": "uint256"
        },
        {
          "indexed": false,
          "internalType": "uint256",
          "name": "endPrice",
          "type": "uint256"
        },
        {
          "indexed": false,
          "internalType": "uint256",
          "name": "duration",
          "type": "uint256"
        }
      ],
      "name": "AuctionCreated",
      "type": "event"
    },
    {
      "anonymous": false,
      "inputs": [
        {
          "indexed": true,
          "internalType": "bytes32",
          "name": "auctionId",
          "type": "bytes32"
        },
        {
          "indexed": true,
          "internalType": "address",
          "name": "buyer",
          "type": "address"
        },
        {
          "indexed": false,
          "internalType": "uint256",
          "name": "price",
          "type": "uint256"
        },
        {
          "indexed": false,
          "internalType": "uint256",
          "name": "amount",
          "type": "uint256"
        }
      ],
      "name": "AuctionSettled",
      "type": "event"
    },
    {
      "inputs": [
        {
          "internalType": "bytes32",
          "name": "",
          "type": "bytes32"
        }
      ],
      "name": "auctions",
      "outputs": [
        {
          "internalType": "uint256",
          "name": "startPrice",
          "type": "uint256"
        },
        {
          "internalType": "uint256",
          "name": "endPrice",
          "type": "uint256"
        },
        {
          "internalType": "uint256",
          "name": "startTime",
          "type": "uint256"
        },
        {
          "internalType": "uint256",
          "name": "duration",
          "type": "uint256"
        },
        {
          "internalType": "address",
          "name": "token",
          "type": "address"
        },
        {
          "internalType": "uint256",
          "name": "amount",
          "type": "uint256"
        },
        {
          "internalType": "address",
          "name": "seller",
          "type": "address"
        },
        {
          "internalType": "bool",
          "name": "active",
          "type": "bool"
        }
      ],
      "stateMutability": "view",
      "type": "function"
    },
    {
      "inputs": [
        {
          "internalType": "bytes32",
          "name": "auctionId",
          "type": "bytes32"
        }
      ],
      "name": "cancelAuction",
      "outputs": [],
      "stateMutability": "nonpayable",
      "type": "function"
    },
    {
      "inputs": [
        {
          "internalType": "bytes32",
          "name": "auctionId",
          "type": "bytes32"
        },
        {
          "internalType": "address",
          "name": "token",
          "type": "address"
        },
        {
          "internalType": "uint256",
          "name": "amount",
          "type": "uint256"
        },
        {
          "internalType": "uint256",
          "name": "startPrice",
          "type": "uint256"
        },
        {
          "internalType": "uint256",
          "name": "endPrice",
          "type": "uint256"
        },
        {
          "internalType": "uint256",
          "name": "duration",
          "type": "uint256"
        }
      ],
      "name": "createAuction",
      "outputs": [],
      "stateMutability": "nonpayable",
      "type": "function"
    },
    {
      "inputs": [
        {
          "internalType": "bytes32",
          "name": "auctionId",
          "type": "bytes32"
        }
      ],
      "name": "getCurrentPrice",
      "outputs": [
        {
          "internalType": "uint256",
          "name": "",
          "type": "uint256"
        }
      ],
      "stateMutability": "view",
      "type": "function"
    },
    {
      "inputs": [
        {
          "internalType": "bytes32",
          "name": "auctionId",
          "type": "bytes32"
        }
      ],
      "name": "isAuctionActive",
      "outputs": [
        {
          "internalType": "bool",
          "name": "",
          "type": "bool"
        }
      ],
      "stateMutability": "view",
      "type": "function"
    },
    {
      "inputs": [
        {
          "internalType": "bytes32",
          "name": "auctionId",
          "type": "bytes32"
        }
      ],
      "name": "settleAuction",
      "outputs": [],
      "stateMutability": "payable",
      "type": "function"
    }
  ],
  "bytecode": "0x608060405234801561001057600080fd5b50d3801561001d57600080fd5b50d2801561002a57600080fd5b5061126c8061003a6000396000f3fe6080604052600436106100555760003560e01c8063161e444e1461005a5780631edbc5be146100b15780633ef4d1301461010f5780637a96c7ff14610152578063b625e31714610195578063ec1f1a52146101ec575b600080fd5b34801561006657600080fd5b50d3801561007357600080fd5b50d2801561008057600080fd5b5061009b60048036038101906100969190610bba565b610208565b6040516100a89190610e4e565b60405180910390f35b3480156100bd57600080fd5b50d380156100ca57600080fd5b50d280156100d757600080fd5b506100f260048036038101906100ed9190610bba565b6103e2565b604051610106989796959493929190610ed7565b60405180910390f35b34801561011b57600080fd5b50d3801561012857600080fd5b50d2801561013557600080fd5b50610150600480360381019061014b9190610bba565b610477565b005b34801561015e57600080fd5b50d3801561016b57600080fd5b50d2801561017857600080fd5b50610193600480360381019061018e9190610be7565b6105be565b005b3480156101a157600080fd5b50d380156101ae57600080fd5b50d280156101bb57600080fd5b506101d660048036038101906101d19190610bba565b610878565b6040516101e39190610d73565b60405180910390f35b61020660048036038101906102019190610bba565b6109bf565b005b60008060008084815260200190815260200160002060405180610100016040529081600082015481526020016001820154815260200160028201548152602001600382015481526020016004820160009054906101000a900473ffffffffffffffffffffffffffffffffffffffff1673ffffffffffffffffffffffffffffffffffffffff1673ffffffffffffffffffffffffffffffffffffffff168152602001600582015481526020016006820160009054906101000a900473ffffffffffffffffffffffffffffffffffffffff1673ffffffffffffffffffffffffffffffffffffffff1673ffffffffffffffffffffffffffffffffffffffff1681526020016006820160149054906101000a900460ff16151515158152505090508060e00151610368576040517f08c379a000000000000000000000000000000000000000000000000000000000815260040161035f90610dce565b60405180910390fd5b600081604001514261037a9190610ff1565b905081606001518110610395578160200151925050506103dd565b6000826060015182846020015185600001516103b19190610ff1565b6103bb9190610f97565b6103c59190610f66565b90508083600001516103d79190610ff1565b93505050505b919050565b60006020528060005260406000206000915090508060000154908060010154908060020154908060030154908060040160009054906101000a900473ffffffffffffffffffffffffffffffffffffffff16908060050154908060060160009054906101000a900473ffffffffffffffffffffffffffffffffffffffff16908060060160149054906101000a900460ff16905088565b600080600083815260200190815260200160002090508060060160149054906101000a900460ff166104de576040517f08c379a00000000000000000000000000000000000000000000000000000000081526004016104d590610dce565b60405180910390fd5b3373ffffffffffffffffffffffffffffffffffffffff168160060160009054906101000a900473ffffffffffffffffffffffffffffffffffffffff1673ffffffffffffffffffffffffffffffffffffffff1614610570576040517f08c379a000000000000000000000000000000000000000000000000000000000815260040161056790610e0e565b60405180910390fd5b60008160060160146101000a81548160ff021916908315150217905550817fd88fab4b08bf76f15cf2d6e03e382acf1edd6790ab82967e406abac37db2028860405160405180910390a25050565b818311610600576040517f08c379a00000000000000000000000000000000000000000000000000000000081526004016105f790610dee565b60405180910390fd5b60008111610643576040517f08c379a000000000000000000000000000000000000000000000000000000000815260040161063a90610dae565b60405180910390fd5b60008087815260200190815260200160002060060160149054906101000a900460ff16156106a6576040517f08c379a000000000000000000000000000000000000000000000000000000000815260040161069d90610d8e565b60405180910390fd5b6040518061010001604052808481526020018381526020014281526020018281526020018673ffffffffffffffffffffffffffffffffffffffff1681526020018581526020013373ffffffffffffffffffffffffffffffffffffffff168152602001600115158152506000808881526020019081526020016000206000820151816000015560208201518160010155604082015181600201556060820151816003015560808201518160040160006101000a81548173ffffffffffffffffffffffffffffffffffffffff021916908373ffffffffffffffffffffffffffffffffffffffff16021790555060a0820151816005015560c08201518160060160006101000a81548173ffffffffffffffffffffffffffffffffffffffff021916908373ffffffffffffffffffffffffffffffffffffffff16021790555060e08201518160060160146101000a81548160ff0219169083151502179055509050508473ffffffffffffffffffffffffffffffffffffffff163373ffffffffffffffffffffffffffffffffffffffff16877ff22938c4fc67d67783dff47ab46e94951705b0261ab65c6379ab5f23b2bd0193878787876040516108689493929190610e92565b60405180910390a4505050505050565b60008060008084815260200190815260200160002060405180610100016040529081600082015481526020016001820154815260200160028201548152602001600382015481526020016004820160009054906101000a900473ffffffffffffffffffffffffffffffffffffffff1673ffffffffffffffffffffffffffffffffffffffff1673ffffffffffffffffffffffffffffffffffffffff168152602001600582015481526020016006820160009054906101000a900473ffffffffffffffffffffffffffffffffffffffff1673ffffffffffffffffffffffffffffffffffffffff1673ffffffffffffffffffffffffffffffffffffffff1681526020016006820160149054906101000a900460ff16151515158152505090508060e0015180156109b7575080606001518160400151426109b59190610ff1565b105b915050919050565b600080600083815260200190815260200160002090508060060160149054906101000a900460ff16610a26576040517f08c379a0000000000000000000000000000000000000000000000000000000008152600401610a1d90610dce565b60405180910390fd5b6000610a3183610208565b90506000670de0b6b3a7640000836005015483610a4e9190610f97565b610a589190610f66565b905080341015610a9d576040517f08c379a0000000000000000000000000000000000000000000000000000000008152600401610a9490610e2e565b60405180910390fd5b60008360060160146101000a81548160ff0219169083151502179055503373ffffffffffffffffffffffffffffffffffffffff16847f9bd679988afa62c3a2a077b5aca0a941959adcdc7fff376f0846a733780cf813848660050154604051610b07929190610e69565b60405180910390a380341115610b6a573373ffffffffffffffffffffffffffffffffffffffff166108fc8234610b3d9190610ff1565b9081150290604051600060405180830381858888f19350505050158015610b68573d6000803e3d6000fd5b505b50505050565b600081359050610b7f816111f1565b610b8881611025565b905092915050565b600081359050610b9f81611208565b92915050565b600081359050610bb48161121f565b92915050565b600060208284031215610bd057610bcf6110f6565b5b6000610bde84828501610b90565b91505092915050565b60008060008060008060c08789031215610c0457610c036110f6565b5b6000610c1289828a01610b90565b9650506020610c2389828a01610b70565b9550506040610c3489828a01610ba5565b9450506060610c4589828a01610ba5565b9350506080610c5689828a01610ba5565b92505060a0610c6789828a01610ba5565b9150509295509295509295565b610c7d81611025565b82525050565b610c8c81611037565b82525050565b6000610c9f601683610f55565b9150610caa826110fb565b602082019050919050565b6000610cc2601083610f55565b9150610ccd82611124565b602082019050919050565b6000610ce5601283610f55565b9150610cf08261114d565b602082019050919050565b6000610d08601383610f55565b9150610d1382611176565b602082019050919050565b6000610d2b601683610f55565b9150610d368261119f565b602082019050919050565b6000610d4e601483610f55565b9150610d59826111c8565b602082019050919050565b610d6d8161108e565b82525050565b6000602082019050610d886000830184610c83565b92915050565b60006020820190508181036000830152610da781610c92565b9050919050565b60006020820190508181036000830152610dc781610cb5565b9050919050565b60006020820190508181036000830152610de781610cd8565b9050919050565b60006020820190508181036000830152610e0781610cfb565b9050919050565b60006020820190508181036000830152610e2781610d1e565b9050919050565b60006020820190508181036000830152610e4781610d41565b9050919050565b6000602082019050610e636000830184610d64565b92915050565b6000604082019050610e7e6000830185610d64565b610e8b6020830184610d64565b9392505050565b6000608082019050610ea76000830187610d64565b610eb46020830186610d64565b610ec16040830185610d64565b610ece6060830184610d64565b95945050505050565b600061010082019050610eed600083018b610d64565b610efa602083018a610d64565b610f076040830189610d64565b610f146060830188610d64565b610f216080830187610c74565b610f2e60a0830186610d64565b610f3b60c0830185610c74565b610f4860e0830184610c83565b9998505050505050505050565b600082825260208201905092915050565b6000610f718261108e565b9150610f7c8361108e565b925082610f8c57610f8b6110c7565b5b828204905092915050565b6000610fa28261108e565b9150610fad8361108e565b9250817fffffffffffffffffffffffffffffffffffffffffffffffffffffffffffffffff0483118215151615610fe657610fe5611098565b5b828202905092915050565b6000610ffc8261108e565b91506110078361108e565b92508282101561101a57611019611098565b5b828203905092915050565b60006110308261104d565b9050919050565b60008115159050919050565b6000819050919050565b600073ffffffffffffffffffffffffffffffffffffffff82169050919050565b600074ffffffffffffffffffffffffffffffffffffffffff82169050919050565b6000819050919050565b7f4e487b7100000000000000000000000000000000000000000000000000000000600052601160045260246000fd5b7f4e487b7100000000000000000000000000000000000000000000000000000000600052601260045260246000fd5b600080fd5b7f41756374696f6e20616c72656164792065786973747300000000000000000000600082015250565b7f496e76616c6964206475726174696f6e00000000000000000000000000000000600082015250565b7f41756374696f6e206e6f74206163746976650000000000000000000000000000600082015250565b7f496e76616c69642070726963652072616e676500000000000000000000000000600082015250565b7f4f6e6c792073656c6c65722063616e2063616e63656c00000000000000000000600082015250565b7f496e73756666696369656e74207061796d656e74000000000000000000000000600082015250565b6111fa8161106d565b811461120557600080fd5b50565b61121181611043565b811461121c57600080fd5b50565b6112288161108e565b811461123357600080fd5b5056fea26474726f6e58221220953c220888b02586532a3cf6c10a2b1495ed09c02b7ad2b29687cf740034d6d464736f6c63430008060033",
  "source": "// SPDX-License-Identifier: MIT\npragma solidity ^0.8.6;\n\n/**\n * @title SimpleTronAuction - Dutch Auction for Tron\n */\ncontract SimpleTronAuction {\n    struct Auction {\n        uint256 startPrice;\n        uint256 endPrice;\n        uint256 startTime;\n        uint256 duration;\n        address token;\n        uint256 amount;\n        address seller;\n        bool active;\n    }\n\n    mapping(bytes32 => Auction) public auctions;\n    \n    event AuctionCreated(\n        bytes32 indexed auctionId,\n        address indexed seller,\n        address indexed token,\n        uint256 amount,\n        uint256 startPrice,\n        uint256 endPrice,\n        uint256 duration\n    );\n    \n    event AuctionSettled(\n        bytes32 indexed auctionId,\n        address indexed buyer,\n        uint256 price,\n        uint256 amount\n    );\n    \n    event AuctionCancelled(bytes32 indexed auctionId);\n\n    /**\n     * @notice Creates a new dutch auction\n     */\n    function createAuction(\n        bytes32 auctionId,\n        address token,\n        uint256 amount,\n        uint256 startPrice,\n        uint256 endPrice,\n        uint256 duration\n    ) external {\n        require(startPrice > endPrice, \"Invalid price range\");\n        require(duration > 0, \"Invalid duration\");\n        require(!auctions[auctionId].active, \"Auction already exists\");\n\n        auctions[auctionId] = Auction({\n            startPrice: startPrice,\n            endPrice: endPrice,\n            startTime: block.timestamp,\n            duration: duration,\n            token: token,\n            amount: amount,\n            seller: msg.sender,\n            active: true\n        });\n\n        emit AuctionCreated(\n            auctionId,\n            msg.sender,\n            token,\n            amount,\n            startPrice,\n            endPrice,\n            duration\n        );\n    }\n\n    /**\n     * @notice Calculates current auction price\n     */\n    function getCurrentPrice(bytes32 auctionId) public view returns (uint256) {\n        Auction memory auction = auctions[auctionId];\n        require(auction.active, \"Auction not active\");\n        \n        uint256 elapsed = block.timestamp - auction.startTime;\n        if (elapsed >= auction.duration) {\n            return auction.endPrice;\n        }\n        \n        uint256 priceDecrease = (auction.startPrice - auction.endPrice) * elapsed / auction.duration;\n        return auction.startPrice - priceDecrease;\n    }\n\n    /**\n     * @notice Settles an auction at current price\n     */\n    function settleAuction(bytes32 auctionId) external payable {\n        Auction storage auction = auctions[auctionId];\n        require(auction.active, \"Auction not active\");\n        \n        uint256 currentPrice = getCurrentPrice(auctionId);\n        uint256 totalCost = currentPrice * auction.amount / 1e18;\n        \n        require(msg.value >= totalCost, \"Insufficient payment\");\n        \n        auction.active = false;\n        \n        emit AuctionSettled(auctionId, msg.sender, currentPrice, auction.amount);\n        \n        // Return excess payment\n        if (msg.value > totalCost) {\n            payable(msg.sender).transfer(msg.value - totalCost);\n        }\n    }\n\n    /**\n     * @notice Cancels an active auction\n     */\n    function cancelAuction(bytes32 auctionId) external {\n        Auction storage auction = auctions[auctionId];\n        require(auction.active, \"Auction not active\");\n        require(auction.seller == msg.sender, \"Only seller can cancel\");\n        \n        auction.active = false;\n        emit AuctionCancelled(auctionId);\n    }\n\n    /**\n     * @notice Checks if auction is still active\n     */\n    function isAuctionActive(bytes32 auctionId) external view returns (bool) {\n        Auction memory auction = auctions[auctionId];\n        return auction.active && (block.timestamp - auction.startTime < auction.duration);\n    }\n}",
  "sourcePath": "/Users/gabrielantonyxaviour/Documents/projects/unite-defi/resolver-branches/tron-integration/tron-contracts/tron-contracts/contracts/SimpleTronAuction.sol",
  "compiler": {
    "name": "solc",
    "version": "0.8.6+commit.0e36fba0.mod.Emscripten.clang"
  },
  "schemaVersion": "2.0.1",
  "updatedAt": "2025-07-27T13:34:11.408Z"
}