{
  "contractName": "SimpleRelayer",
  "abi": [
    {
      "anonymous": false,
      "inputs": [
        {
          "indexed": true,
          "internalType": "bytes32",
          "name": "id",
          "type": "bytes32"
        },
        {
          "indexed": false,
          "internalType": "bytes32",
          "name": "secret",
          "type": "bytes32"
        }
      ],
      "name": "OrderCompleted",
      "type": "event"
    },
    {
      "anonymous": false,
      "inputs": [
        {
          "indexed": true,
          "internalType": "bytes32",
          "name": "id",
          "type": "bytes32"
        },
        {
          "indexed": false,
          "internalType": "address",
          "name": "user",
          "type": "address"
        }
      ],
      "name": "OrderCreated",
      "type": "event"
    },
    {
      "anonymous": false,
      "inputs": [
        {
          "indexed": true,
          "internalType": "bytes32",
          "name": "id",
          "type": "bytes32"
        },
        {
          "indexed": false,
          "internalType": "address",
          "name": "resolver",
          "type": "address"
        }
      ],
      "name": "ResolverCommitted",
      "type": "event"
    },
    {
      "inputs": [],
      "name": "DEPOSIT",
      "outputs": [
        {
          "internalType": "uint256",
          "name": "",
          "type": "uint256"
        }
      ],
      "stateMutability": "view",
      "type": "function"
    },
    {
      "inputs": [],
      "name": "TIMEOUT",
      "outputs": [
        {
          "internalType": "uint256",
          "name": "",
          "type": "uint256"
        }
      ],
      "stateMutability": "view",
      "type": "function"
    },
    {
      "inputs": [
        {
          "internalType": "bytes32",
          "name": "id",
          "type": "bytes32"
        }
      ],
      "name": "canRescue",
      "outputs": [
        {
          "internalType": "bool",
          "name": "",
          "type": "bool"
        }
      ],
      "stateMutability": "view",
      "type": "function"
    },
    {
      "inputs": [
        {
          "internalType": "bytes32",
          "name": "id",
          "type": "bytes32"
        }
      ],
      "name": "commitToOrder",
      "outputs": [],
      "stateMutability": "nonpayable",
      "type": "function"
    },
    {
      "inputs": [
        {
          "internalType": "bytes32",
          "name": "id",
          "type": "bytes32"
        },
        {
          "internalType": "bytes32",
          "name": "secret",
          "type": "bytes32"
        }
      ],
      "name": "completeOrder",
      "outputs": [],
      "stateMutability": "nonpayable",
      "type": "function"
    },
    {
      "inputs": [
        {
          "internalType": "bytes32",
          "name": "id",
          "type": "bytes32"
        },
        {
          "internalType": "address",
          "name": "sourceToken",
          "type": "address"
        },
        {
          "internalType": "uint256",
          "name": "sourceAmount",
          "type": "uint256"
        },
        {
          "internalType": "uint256",
          "name": "sourceChain",
          "type": "uint256"
        },
        {
          "internalType": "uint256",
          "name": "destChain",
          "type": "uint256"
        }
      ],
      "name": "createOrder",
      "outputs": [],
      "stateMutability": "nonpayable",
      "type": "function"
    },
    {
      "inputs": [
        {
          "internalType": "address",
          "name": "",
          "type": "address"
        }
      ],
      "name": "deposits",
      "outputs": [
        {
          "internalType": "uint256",
          "name": "",
          "type": "uint256"
        }
      ],
      "stateMutability": "view",
      "type": "function"
    },
    {
      "inputs": [
        {
          "internalType": "bytes32",
          "name": "id",
          "type": "bytes32"
        }
      ],
      "name": "getOrder",
      "outputs": [
        {
          "components": [
            {
              "internalType": "bytes32",
              "name": "id",
              "type": "bytes32"
            },
            {
              "internalType": "address",
              "name": "user",
              "type": "address"
            },
            {
              "internalType": "address",
              "name": "sourceToken",
              "type": "address"
            },
            {
              "internalType": "uint256",
              "name": "sourceAmount",
              "type": "uint256"
            },
            {
              "internalType": "uint256",
              "name": "sourceChain",
              "type": "uint256"
            },
            {
              "internalType": "uint256",
              "name": "destChain",
              "type": "uint256"
            },
            {
              "internalType": "uint8",
              "name": "status",
              "type": "uint8"
            },
            {
              "internalType": "address",
              "name": "resolver",
              "type": "address"
            },
            {
              "internalType": "uint256",
              "name": "expiry",
              "type": "uint256"
            },
            {
              "internalType": "bytes32",
              "name": "secret",
              "type": "bytes32"
            }
          ],
          "internalType": "struct SimpleRelayer.Order",
          "name": "",
          "type": "tuple"
        }
      ],
      "stateMutability": "view",
      "type": "function"
    },
    {
      "inputs": [
        {
          "internalType": "bytes32",
          "name": "",
          "type": "bytes32"
        }
      ],
      "name": "orders",
      "outputs": [
        {
          "internalType": "bytes32",
          "name": "id",
          "type": "bytes32"
        },
        {
          "internalType": "address",
          "name": "user",
          "type": "address"
        },
        {
          "internalType": "address",
          "name": "sourceToken",
          "type": "address"
        },
        {
          "internalType": "uint256",
          "name": "sourceAmount",
          "type": "uint256"
        },
        {
          "internalType": "uint256",
          "name": "sourceChain",
          "type": "uint256"
        },
        {
          "internalType": "uint256",
          "name": "destChain",
          "type": "uint256"
        },
        {
          "internalType": "uint8",
          "name": "status",
          "type": "uint8"
        },
        {
          "internalType": "address",
          "name": "resolver",
          "type": "address"
        },
        {
          "internalType": "uint256",
          "name": "expiry",
          "type": "uint256"
        },
        {
          "internalType": "bytes32",
          "name": "secret",
          "type": "bytes32"
        }
      ],
      "stateMutability": "view",
      "type": "function"
    },
    {
      "inputs": [],
      "name": "registerResolver",
      "outputs": [],
      "stateMutability": "payable",
      "type": "function"
    },
    {
      "inputs": [
        {
          "internalType": "address",
          "name": "",
          "type": "address"
        }
      ],
      "name": "resolvers",
      "outputs": [
        {
          "internalType": "bool",
          "name": "",
          "type": "bool"
        }
      ],
      "stateMutability": "view",
      "type": "function"
    }
  ],
  "bytecode": "0x608060405234801561001057600080fd5b50d3801561001d57600080fd5b50d2801561002a57600080fd5b5061162c8061003a6000396000f3fe60806040526004361061009c5760003560e01c80635edc3829116100645780635edc3829146101df5780639c3f1e9014610222578063b93793e914610282578063d81c8e52146102d9578063f56f48f21461031e578063fc7e286d146103635761009c565b80630327a66c146100a15780630f5c4969146100e4578063376425ee146100ee57806337bb1948146101455780635778472a14610188575b600080fd5b3480156100ad57600080fd5b50d380156100ba57600080fd5b50d280156100c757600080fd5b506100e260048036038101906100dd9190610f48565b6103ba565b005b6100ec610677565b005b3480156100fa57600080fd5b50d3801561010757600080fd5b50d2801561011457600080fd5b5061012f600480360381019061012a9190610f1b565b61075a565b60405161013c9190611220565b60405180910390f35b34801561015157600080fd5b50d3801561015e57600080fd5b50d2801561016b57600080fd5b5061018660048036038101906101819190610f1b565b6108fb565b005b34801561019457600080fd5b50d380156101a157600080fd5b50d280156101ae57600080fd5b506101c960048036038101906101c49190610f1b565b610aa7565b6040516101d69190611392565b60405180910390f35b3480156101eb57600080fd5b50d380156101f857600080fd5b50d2801561020557600080fd5b50610220600480360381019061021b9190610fc3565b610c2f565b005b34801561022e57600080fd5b50d3801561023b57600080fd5b50d2801561024857600080fd5b50610263600480360381019061025e9190610f1b565b610d00565b6040516102799a99989796959493929190611256565b60405180910390f35b34801561028e57600080fd5b50d3801561029b57600080fd5b50d280156102a857600080fd5b506102c360048036038101906102be9190610eee565b610dc1565b6040516102d09190611220565b60405180910390f35b3480156102e557600080fd5b50d380156102f257600080fd5b50d280156102ff57600080fd5b50610308610de1565b60405161031591906113ae565b60405180910390f35b34801561032a57600080fd5b50d3801561033757600080fd5b50d2801561034457600080fd5b5061034d610de8565b60405161035a91906113ae565b60405180910390f35b34801561036f57600080fd5b50d3801561037c57600080fd5b50d2801561038957600080fd5b506103a4600480360381019061039f9190610eee565b610dee565b6040516103b191906113ae565b60405180910390f35b600073ffffffffffffffffffffffffffffffffffffffff1660008087815260200190815260200160002060010160009054906101000a900473ffffffffffffffffffffffffffffffffffffffff1673ffffffffffffffffffffffffffffffffffffffff161461045e576040517f08c379a000000000000000000000000000000000000000000000000000000000815260040161045590611352565b60405180910390fd5b6040518061014001604052808681526020013373ffffffffffffffffffffffffffffffffffffffff1681526020018573ffffffffffffffffffffffffffffffffffffffff168152602001848152602001838152602001828152602001600060ff168152602001600073ffffffffffffffffffffffffffffffffffffffff168152602001600081526020016000801b8152506000808781526020019081526020016000206000820151816000015560208201518160010160006101000a81548173ffffffffffffffffffffffffffffffffffffffff021916908373ffffffffffffffffffffffffffffffffffffffff16021790555060408201518160020160006101000a81548173ffffffffffffffffffffffffffffffffffffffff021916908373ffffffffffffffffffffffffffffffffffffffff160217905550606082015181600301556080820151816004015560a0820151816005015560c08201518160060160006101000a81548160ff021916908360ff16021790555060e08201518160060160016101000a81548173ffffffffffffffffffffffffffffffffffffffff021916908373ffffffffffffffffffffffffffffffffffffffff16021790555061010082015181600701556101208201518160080155905050847ffe3abe4ac576af677b15551bc3727d347d2c7b3d0aa6e5d4ec1bed01e3f13d16336040516106689190611205565b60405180910390a25050505050565b620f42403410156106bd576040517f08c379a00000000000000000000000000000000000000000000000000000000081526004016106b490611372565b60405180910390fd5b60018060003373ffffffffffffffffffffffffffffffffffffffff1673ffffffffffffffffffffffffffffffffffffffff16815260200190815260200160002060006101000a81548160ff02191690831515021790555034600260003373ffffffffffffffffffffffffffffffffffffffff1673ffffffffffffffffffffffffffffffffffffffff16815260200190815260200160002081905550565b60008060008084815260200190815260200160002060405180610140016040529081600082015481526020016001820160009054906101000a900473ffffffffffffffffffffffffffffffffffffffff1673ffffffffffffffffffffffffffffffffffffffff1673ffffffffffffffffffffffffffffffffffffffff1681526020016002820160009054906101000a900473ffffffffffffffffffffffffffffffffffffffff1673ffffffffffffffffffffffffffffffffffffffff1673ffffffffffffffffffffffffffffffffffffffff1681526020016003820154815260200160048201548152602001600582015481526020016006820160009054906101000a900460ff1660ff1660ff1681526020016006820160019054906101000a900473ffffffffffffffffffffffffffffffffffffffff1673ffffffffffffffffffffffffffffffffffffffff1673ffffffffffffffffffffffffffffffffffffffff16815260200160078201548152602001600882015481525050905060018160c0015160ff161480156108f3575080610100015142115b915050919050565b600160003373ffffffffffffffffffffffffffffffffffffffff1673ffffffffffffffffffffffffffffffffffffffff16815260200190815260200160002060009054906101000a900460ff16610987576040517f08c379a000000000000000000000000000000000000000000000000000000000815260040161097e90611312565b60405180910390fd5b6000806000838152602001908152602001600020905060008160060160009054906101000a900460ff1660ff16146109f4576040517f08c379a00000000000000000000000000000000000000000000000000000000081526004016109eb90611332565b60405180910390fd5b60018160060160006101000a81548160ff021916908360ff160217905550338160060160016101000a81548173ffffffffffffffffffffffffffffffffffffffff021916908373ffffffffffffffffffffffffffffffffffffffff16021790555061012c42610a6391906113da565b8160070181905550817f577b14fd921cad8ebd660c0d885791802325b41dd2da045368b551ac5210f85f33604051610a9b9190611205565b60405180910390a25050565b610aaf610e06565b60008083815260200190815260200160002060405180610140016040529081600082015481526020016001820160009054906101000a900473ffffffffffffffffffffffffffffffffffffffff1673ffffffffffffffffffffffffffffffffffffffff1673ffffffffffffffffffffffffffffffffffffffff1681526020016002820160009054906101000a900473ffffffffffffffffffffffffffffffffffffffff1673ffffffffffffffffffffffffffffffffffffffff1673ffffffffffffffffffffffffffffffffffffffff1681526020016003820154815260200160048201548152602001600582015481526020016006820160009054906101000a900460ff1660ff1660ff1681526020016006820160019054906101000a900473ffffffffffffffffffffffffffffffffffffffff1673ffffffffffffffffffffffffffffffffffffffff1673ffffffffffffffffffffffffffffffffffffffff168152602001600782015481526020016008820154815250509050919050565b6000806000848152602001908152602001600020905060018160060160009054906101000a900460ff1660ff1614610c9c576040517f08c379a0000000000000000000000000000000000000000000000000000000008152600401610c93906112f2565b60405180910390fd5b60028160060160006101000a81548160ff021916908360ff160217905550818160080181905550827f423ae4766560da16b0fc4f075addc5c563d2ce1fbd4cced8399d74fab97584ed83604051610cf3919061123b565b60405180910390a2505050565b60006020528060005260406000206000915090508060000154908060010160009054906101000a900473ffffffffffffffffffffffffffffffffffffffff16908060020160009054906101000a900473ffffffffffffffffffffffffffffffffffffffff16908060030154908060040154908060050154908060060160009054906101000a900460ff16908060060160019054906101000a900473ffffffffffffffffffffffffffffffffffffffff1690806007015490806008015490508a565b60016020528060005260406000206000915054906101000a900460ff1681565b620f424081565b61012c81565b60026020528060005260406000206000915090505481565b60405180610140016040528060008019168152602001600073ffffffffffffffffffffffffffffffffffffffff168152602001600073ffffffffffffffffffffffffffffffffffffffff168152602001600081526020016000815260200160008152602001600060ff168152602001600073ffffffffffffffffffffffffffffffffffffffff16815260200160008152602001600080191681525090565b600081359050610eb3816115b1565b610ebc81611430565b905092915050565b600081359050610ed3816115c8565b92915050565b600081359050610ee8816115df565b92915050565b600060208284031215610f0457610f036114df565b5b6000610f1284828501610ea4565b91505092915050565b600060208284031215610f3157610f306114df565b5b6000610f3f84828501610ec4565b91505092915050565b600080600080600060a08688031215610f6457610f636114df565b5b6000610f7288828901610ec4565b9550506020610f8388828901610ea4565b9450506040610f9488828901610ed9565b9350506060610fa588828901610ed9565b9250506080610fb688828901610ed9565b9150509295509295909350565b60008060408385031215610fda57610fd96114df565b5b6000610fe885828601610ec4565b9250506020610ff985828601610ec4565b9150509250929050565b61100c81611430565b82525050565b61101b81611430565b82525050565b61102a81611442565b82525050565b6110398161144e565b82525050565b6110488161144e565b82525050565b600061105b6013836113c9565b9150611066826114e4565b602082019050919050565b600061107e600e836113c9565b91506110898261150d565b602082019050919050565b60006110a16013836113c9565b91506110ac82611536565b602082019050919050565b60006110c4600c836113c9565b91506110cf8261155f565b602082019050919050565b60006110e76014836113c9565b91506110f282611588565b602082019050919050565b610140820160008201516111146000850182611030565b5060208201516111276020850182611003565b50604082015161113a6040850182611003565b50606082015161114d60608501826111c9565b50608082015161116060808501826111c9565b5060a082015161117360a08501826111c9565b5060c082015161118660c08501826111e7565b5060e082015161119960e0850182611003565b506101008201516111ae6101008501826111c9565b506101208201516111c3610120850182611030565b50505050565b6111d281611499565b82525050565b6111e181611499565b82525050565b6111f0816114a3565b82525050565b6111ff816114a3565b82525050565b600060208201905061121a6000830184611012565b92915050565b60006020820190506112356000830184611021565b92915050565b6000602082019050611250600083018461103f565b92915050565b60006101408201905061126c600083018d61103f565b611279602083018c611012565b611286604083018b611012565b611293606083018a6111d8565b6112a060808301896111d8565b6112ad60a08301886111d8565b6112ba60c08301876111f6565b6112c760e0830186611012565b6112d56101008301856111d8565b6112e361012083018461103f565b9b9a5050505050505050505050565b6000602082019050818103600083015261130b8161104e565b9050919050565b6000602082019050818103600083015261132b81611071565b9050919050565b6000602082019050818103600083015261134b81611094565b9050919050565b6000602082019050818103600083015261136b816110b7565b9050919050565b6000602082019050818103600083015261138b816110da565b9050919050565b6000610140820190506113a860008301846110fd565b92915050565b60006020820190506113c360008301846111d8565b92915050565b600082825260208201905092915050565b60006113e582611499565b91506113f083611499565b9250827fffffffffffffffffffffffffffffffffffffffffffffffffffffffffffffffff03821115611425576114246114b0565b5b828201905092915050565b600061143b82611458565b9050919050565b60008115159050919050565b6000819050919050565b600073ffffffffffffffffffffffffffffffffffffffff82169050919050565b600074ffffffffffffffffffffffffffffffffffffffffff82169050919050565b6000819050919050565b600060ff82169050919050565b7f4e487b7100000000000000000000000000000000000000000000000000000000600052601160045260246000fd5b600080fd5b7f4f72646572206e6f7420636f6d6d697474656400000000000000000000000000600082015250565b7f4e6f742061207265736f6c766572000000000000000000000000000000000000600082015250565b7f4f72646572206e6f7420617661696c61626c6500000000000000000000000000600082015250565b7f4f72646572206578697374730000000000000000000000000000000000000000600082015250565b7f496e73756666696369656e74206465706f736974000000000000000000000000600082015250565b6115ba81611478565b81146115c557600080fd5b50565b6115d18161144e565b81146115dc57600080fd5b50565b6115e881611499565b81146115f357600080fd5b5056fea26474726f6e58221220aada6eaf14d1dc630d87c4225f7bb1ef882236237a2540cfe1f646e4c89892f564736f6c63430008060033",
  "source": "// SPDX-License-Identifier: MIT\npragma solidity ^0.8.6;\n\n/**\n * @title SimpleRelayer - Simplified relayer for cross-chain coordination\n */\ncontract SimpleRelayer {\n    struct Order {\n        bytes32 id;\n        address user;\n        address sourceToken;\n        uint256 sourceAmount;\n        uint256 sourceChain;\n        uint256 destChain;\n        uint8 status; // 0=Created, 1=Committed, 2=Completed, 3=Failed\n        address resolver;\n        uint256 expiry;\n        bytes32 secret;\n    }\n    \n    mapping(bytes32 => Order) public orders;\n    mapping(address => bool) public resolvers;\n    mapping(address => uint256) public deposits;\n    \n    uint256 public constant TIMEOUT = 300; // 5 minutes\n    uint256 public constant DEPOSIT = 1000000; // 1 TRX\n    \n    event OrderCreated(bytes32 indexed id, address user);\n    event ResolverCommitted(bytes32 indexed id, address resolver);\n    event OrderCompleted(bytes32 indexed id, bytes32 secret);\n    \n    function registerResolver() external payable {\n        require(msg.value >= DEPOSIT, \"Insufficient deposit\");\n        resolvers[msg.sender] = true;\n        deposits[msg.sender] = msg.value;\n    }\n    \n    function createOrder(\n        bytes32 id,\n        address sourceToken,\n        uint256 sourceAmount,\n        uint256 sourceChain,\n        uint256 destChain\n    ) external {\n        require(orders[id].user == address(0), \"Order exists\");\n        \n        orders[id] = Order({\n            id: id,\n            user: msg.sender,\n            sourceToken: sourceToken,\n            sourceAmount: sourceAmount,\n            sourceChain: sourceChain,\n            destChain: destChain,\n            status: 0,\n            resolver: address(0),\n            expiry: 0,\n            secret: bytes32(0)\n        });\n        \n        emit OrderCreated(id, msg.sender);\n    }\n    \n    function commitToOrder(bytes32 id) external {\n        require(resolvers[msg.sender], \"Not a resolver\");\n        Order storage order = orders[id];\n        require(order.status == 0, \"Order not available\");\n        \n        order.status = 1;\n        order.resolver = msg.sender;\n        order.expiry = block.timestamp + TIMEOUT;\n        \n        emit ResolverCommitted(id, msg.sender);\n    }\n    \n    function completeOrder(bytes32 id, bytes32 secret) external {\n        Order storage order = orders[id];\n        require(order.status == 1, \"Order not committed\");\n        \n        order.status = 2;\n        order.secret = secret;\n        \n        emit OrderCompleted(id, secret);\n    }\n    \n    function getOrder(bytes32 id) external view returns (Order memory) {\n        return orders[id];\n    }\n    \n    function canRescue(bytes32 id) external view returns (bool) {\n        Order memory order = orders[id];\n        return (order.status == 1 && block.timestamp > order.expiry);\n    }\n}",
  "sourcePath": "/Users/gabrielantonyxaviour/Documents/projects/unite-defi/resolver-branches/tron-integration/tron-contracts/tron-contracts/contracts/SimpleRelayer.sol",
  "compiler": {
    "name": "solc",
    "version": "0.8.6+commit.0e36fba0.mod.Emscripten.clang"
  },
  "schemaVersion": "2.0.1",
  "updatedAt": "2025-07-27T14:50:29.666Z"
}