{
  "contractName": "TronEscrow",
  "abi": [
    {
      "anonymous": false,
      "inputs": [
        {
          "indexed": true,
          "internalType": "bytes32",
          "name": "escrowId",
          "type": "bytes32"
        },
        {
          "indexed": true,
          "internalType": "address",
          "name": "seller",
          "type": "address"
        },
        {
          "indexed": true,
          "internalType": "address",
          "name": "buyer",
          "type": "address"
        },
        {
          "indexed": false,
          "internalType": "uint256",
          "name": "amount",
          "type": "uint256"
        },
        {
          "indexed": false,
          "internalType": "bytes32",
          "name": "hashlock",
          "type": "bytes32"
        },
        {
          "indexed": false,
          "internalType": "uint256",
          "name": "timelock",
          "type": "uint256"
        }
      ],
      "name": "EscrowCreated",
      "type": "event"
    },
    {
      "anonymous": false,
      "inputs": [
        {
          "indexed": true,
          "internalType": "bytes32",
          "name": "escrowId",
          "type": "bytes32"
        }
      ],
      "name": "EscrowRefunded",
      "type": "event"
    },
    {
      "anonymous": false,
      "inputs": [
        {
          "indexed": true,
          "internalType": "bytes32",
          "name": "escrowId",
          "type": "bytes32"
        },
        {
          "indexed": false,
          "internalType": "bytes32",
          "name": "preimage",
          "type": "bytes32"
        }
      ],
      "name": "EscrowWithdrawn",
      "type": "event"
    },
    {
      "inputs": [
        {
          "internalType": "bytes32",
          "name": "",
          "type": "bytes32"
        }
      ],
      "name": "escrows",
      "outputs": [
        {
          "internalType": "address payable",
          "name": "seller",
          "type": "address"
        },
        {
          "internalType": "address payable",
          "name": "buyer",
          "type": "address"
        },
        {
          "internalType": "uint256",
          "name": "amount",
          "type": "uint256"
        },
        {
          "internalType": "bytes32",
          "name": "hashlock",
          "type": "bytes32"
        },
        {
          "internalType": "uint256",
          "name": "timelock",
          "type": "uint256"
        },
        {
          "internalType": "bool",
          "name": "withdrawn",
          "type": "bool"
        },
        {
          "internalType": "bool",
          "name": "refunded",
          "type": "bool"
        },
        {
          "internalType": "address",
          "name": "token",
          "type": "address"
        }
      ],
      "stateMutability": "view",
      "type": "function"
    },
    {
      "inputs": [],
      "name": "getContractBalance",
      "outputs": [
        {
          "internalType": "uint256",
          "name": "",
          "type": "uint256"
        }
      ],
      "stateMutability": "view",
      "type": "function"
    },
    {
      "inputs": [
        {
          "internalType": "bytes32",
          "name": "_escrowId",
          "type": "bytes32"
        }
      ],
      "name": "getEscrow",
      "outputs": [
        {
          "internalType": "address",
          "name": "seller",
          "type": "address"
        },
        {
          "internalType": "address",
          "name": "buyer",
          "type": "address"
        },
        {
          "internalType": "uint256",
          "name": "amount",
          "type": "uint256"
        },
        {
          "internalType": "bytes32",
          "name": "hashlock",
          "type": "bytes32"
        },
        {
          "internalType": "uint256",
          "name": "timelock",
          "type": "uint256"
        },
        {
          "internalType": "bool",
          "name": "withdrawn",
          "type": "bool"
        },
        {
          "internalType": "bool",
          "name": "refunded",
          "type": "bool"
        }
      ],
      "stateMutability": "view",
      "type": "function"
    },
    {
      "inputs": [
        {
          "internalType": "bytes32",
          "name": "_escrowId",
          "type": "bytes32"
        }
      ],
      "name": "hasEscrow",
      "outputs": [
        {
          "internalType": "bool",
          "name": "",
          "type": "bool"
        }
      ],
      "stateMutability": "view",
      "type": "function"
    },
    {
      "inputs": [
        {
          "internalType": "bytes32",
          "name": "_escrowId",
          "type": "bytes32"
        },
        {
          "internalType": "address payable",
          "name": "_buyer",
          "type": "address"
        },
        {
          "internalType": "bytes32",
          "name": "_hashlock",
          "type": "bytes32"
        },
        {
          "internalType": "uint256",
          "name": "_timelock",
          "type": "uint256"
        }
      ],
      "name": "newEscrow",
      "outputs": [],
      "stateMutability": "payable",
      "type": "function"
    },
    {
      "inputs": [
        {
          "internalType": "bytes32",
          "name": "_escrowId",
          "type": "bytes32"
        }
      ],
      "name": "refund",
      "outputs": [],
      "stateMutability": "nonpayable",
      "type": "function"
    },
    {
      "inputs": [
        {
          "internalType": "bytes32",
          "name": "_escrowId",
          "type": "bytes32"
        },
        {
          "internalType": "bytes32",
          "name": "_preimage",
          "type": "bytes32"
        }
      ],
      "name": "withdraw",
      "outputs": [],
      "stateMutability": "nonpayable",
      "type": "function"
    }
  ],
  "bytecode": "0x608060405234801561001057600080fd5b50d3801561001d57600080fd5b50d2801561002a57600080fd5b5061169e8061003a6000396000f3fe6080604052600436106100705760003560e01c80637249fbb61161004e5780637249fbb61461015b578063e725d63d1461019e578063ecc80a67146101ba578063f023b8111461021157610070565b80632d83549c1461007557806363615149146100d35780636f9fb98a14610116575b600080fd5b34801561008157600080fd5b50d3801561008e57600080fd5b50d2801561009b57600080fd5b506100b660048036038101906100b19190610e14565b61026e565b6040516100ca9897969594939291906110e6565b60405180910390f35b3480156100df57600080fd5b50d380156100ec57600080fd5b50d280156100f957600080fd5b50610114600480360381019061010f9190610ea8565b610330565b005b34801561012257600080fd5b50d3801561012f57600080fd5b50d2801561013c57600080fd5b506101456106a9565b6040516101529190611369565b60405180910390f35b34801561016757600080fd5b50d3801561017457600080fd5b50d2801561018157600080fd5b5061019c60048036038101906101979190610e14565b6106b1565b005b6101b860048036038101906101b39190610e41565b61099c565b005b3480156101c657600080fd5b50d380156101d357600080fd5b50d280156101e057600080fd5b506101fb60048036038101906101f69190610e14565b610ca5565b60405161020891906111d3565b60405180910390f35b34801561021d57600080fd5b50d3801561022a57600080fd5b50d2801561023757600080fd5b50610252600480360381019061024d9190610e14565b610d13565b6040516102659796959493929190611164565b60405180910390f35b60006020528060005260406000206000915090508060000160009054906101000a900473ffffffffffffffffffffffffffffffffffffffff16908060010160009054906101000a900473ffffffffffffffffffffffffffffffffffffffff16908060020154908060030154908060040154908060050160009054906101000a900460ff16908060050160019054906101000a900460ff16908060050160029054906101000a900473ffffffffffffffffffffffffffffffffffffffff16905088565b8161033a81610ca5565b610379576040517f08c379a000000000000000000000000000000000000000000000000000000000815260040161037090611349565b60405180910390fd5b82828060405160200161038c91906110cb565b6040516020818303038152906040528051906020012060008084815260200190815260200160002060030154146103f8576040517f08c379a00000000000000000000000000000000000000000000000000000000081526004016103ef90611229565b60405180910390fd5b843373ffffffffffffffffffffffffffffffffffffffff1660008083815260200190815260200160002060010160009054906101000a900473ffffffffffffffffffffffffffffffffffffffff1673ffffffffffffffffffffffffffffffffffffffff161461049c576040517f08c379a000000000000000000000000000000000000000000000000000000000815260040161049390611249565b60405180910390fd5b6000151560008083815260200190815260200160002060050160009054906101000a900460ff16151514610505576040517f08c379a00000000000000000000000000000000000000000000000000000000081526004016104fc90611309565b60405180910390fd5b6000151560008083815260200190815260200160002060050160019054906101000a900460ff1615151461056e576040517f08c379a000000000000000000000000000000000000000000000000000000000815260040161056590611329565b60405180910390fd5b600080828152602001908152602001600020600401544211156105c6576040517f08c379a00000000000000000000000000000000000000000000000000000000081526004016105bd90611209565b60405180910390fd5b6000806000888152602001908152602001600020905060018160050160006101000a81548160ff0219169083151502179055508060010160009054906101000a900473ffffffffffffffffffffffffffffffffffffffff1673ffffffffffffffffffffffffffffffffffffffff166108fc82600201549081150290604051600060405180830381858888f19350505050158015610667573d6000803e3d6000fd5b50867fb43c3b34895c7ebb1941c852d7c176c0f12fc1746336bbc98d2163cefebf677c8760405161069891906111ee565b60405180910390a250505050505050565b600047905090565b806106bb81610ca5565b6106fa576040517f08c379a00000000000000000000000000000000000000000000000000000000081526004016106f190611349565b60405180910390fd5b813373ffffffffffffffffffffffffffffffffffffffff1660008083815260200190815260200160002060000160009054906101000a900473ffffffffffffffffffffffffffffffffffffffff1673ffffffffffffffffffffffffffffffffffffffff161461079e576040517f08c379a000000000000000000000000000000000000000000000000000000000815260040161079590611289565b60405180910390fd5b6000151560008083815260200190815260200160002060050160009054906101000a900460ff16151514610807576040517f08c379a00000000000000000000000000000000000000000000000000000000081526004016107fe90611309565b60405180910390fd5b6000151560008083815260200190815260200160002060050160019054906101000a900460ff16151514610870576040517f08c379a000000000000000000000000000000000000000000000000000000000815260040161086790611329565b60405180910390fd5b6000808281526020019081526020016000206004015442116108c7576040517f08c379a00000000000000000000000000000000000000000000000000000000081526004016108be906112e9565b60405180910390fd5b6000806000858152602001908152602001600020905060018160050160016101000a81548160ff0219169083151502179055508060000160009054906101000a900473ffffffffffffffffffffffffffffffffffffffff1673ffffffffffffffffffffffffffffffffffffffff166108fc82600201549081150290604051600060405180830381858888f19350505050158015610968573d6000803e3d6000fd5b50837f7b08f2d2a35d68f512d4ee819cc6c616e61aa7cd7f7b0855d95ba090d84dc43660405160405180910390a250505050565b6109a584610ca5565b156109e5576040517f08c379a00000000000000000000000000000000000000000000000000000000081526004016109dc906112a9565b60405180910390fd5b60003411610a28576040517f08c379a0000000000000000000000000000000000000000000000000000000008152600401610a1f906112c9565b60405180910390fd5b428111610a6a576040517f08c379a0000000000000000000000000000000000000000000000000000000008152600401610a6190611269565b60405180910390fd5b6040518061010001604052803373ffffffffffffffffffffffffffffffffffffffff1681526020018473ffffffffffffffffffffffffffffffffffffffff168152602001348152602001838152602001828152602001600015158152602001600015158152602001600073ffffffffffffffffffffffffffffffffffffffff1681525060008086815260200190815260200160002060008201518160000160006101000a81548173ffffffffffffffffffffffffffffffffffffffff021916908373ffffffffffffffffffffffffffffffffffffffff16021790555060208201518160010160006101000a81548173ffffffffffffffffffffffffffffffffffffffff021916908373ffffffffffffffffffffffffffffffffffffffff16021790555060408201518160020155606082015181600301556080820151816004015560a08201518160050160006101000a81548160ff02191690831515021790555060c08201518160050160016101000a81548160ff02191690831515021790555060e08201518160050160026101000a81548173ffffffffffffffffffffffffffffffffffffffff021916908373ffffffffffffffffffffffffffffffffffffffff1602179055509050508273ffffffffffffffffffffffffffffffffffffffff163373ffffffffffffffffffffffffffffffffffffffff16857f988f74a523f4297737548e1bc71ca431bee5f22fc29c4056ef51c11bfa0ba326348686604051610c9793929190611384565b60405180910390a450505050565b60008073ffffffffffffffffffffffffffffffffffffffff1660008084815260200190815260200160002060000160009054906101000a900473ffffffffffffffffffffffffffffffffffffffff1673ffffffffffffffffffffffffffffffffffffffff1614159050919050565b6000806000806000806000806000808a815260200190815260200160002090508060000160009054906101000a900473ffffffffffffffffffffffffffffffffffffffff168160010160009054906101000a900473ffffffffffffffffffffffffffffffffffffffff168260020154836003015484600401548560050160009054906101000a900460ff168660050160019054906101000a900460ff16975097509750975097509750975050919395979092949650565b600081359050610dd981611623565b610de2816113de565b905092915050565b600081359050610df98161163a565b92915050565b600081359050610e0e81611651565b92915050565b600060208284031215610e2a57610e2961145b565b5b6000610e3884828501610dea565b91505092915050565b60008060008060808587031215610e5b57610e5a61145b565b5b6000610e6987828801610dea565b9450506020610e7a87828801610dca565b9350506040610e8b87828801610dea565b9250506060610e9c87828801610dff565b91505092959194509250565b60008060408385031215610ebf57610ebe61145b565b5b6000610ecd85828601610dea565b9250506020610ede85828601610dea565b9150509250929050565b610ef1816113de565b82525050565b610f00816113cc565b82525050565b610f0f816113f0565b82525050565b610f1e816113fc565b82525050565b610f35610f30826113fc565b611451565b82525050565b6000610f486010836113bb565b9150610f5382611460565b602082019050919050565b6000610f6b6017836113bb565b9150610f7682611489565b602082019050919050565b6000610f8e6017836113bb565b9150610f99826114b2565b602082019050919050565b6000610fb1601e836113bb565b9150610fbc826114db565b602082019050919050565b6000610fd46016836113bb565b9150610fdf82611504565b602082019050919050565b6000610ff76015836113bb565b91506110028261152d565b602082019050919050565b600061101a601d836113bb565b915061102582611556565b602082019050919050565b600061103d6014836113bb565b91506110488261157f565b602082019050919050565b60006110606011836113bb565b915061106b826115a8565b602082019050919050565b60006110836010836113bb565b915061108e826115d1565b602082019050919050565b60006110a66015836113bb565b91506110b1826115fa565b602082019050919050565b6110c581611447565b82525050565b60006110d78284610f24565b60208201915081905092915050565b6000610100820190506110fc600083018b610ee8565b611109602083018a610ee8565b61111660408301896110bc565b6111236060830188610f15565b61113060808301876110bc565b61113d60a0830186610f06565b61114a60c0830185610f06565b61115760e0830184610ef7565b9998505050505050505050565b600060e082019050611179600083018a610ef7565b6111866020830189610ef7565b61119360408301886110bc565b6111a06060830187610f15565b6111ad60808301866110bc565b6111ba60a0830185610f06565b6111c760c0830184610f06565b98975050505050505050565b60006020820190506111e86000830184610f06565b92915050565b60006020820190506112036000830184610f15565b92915050565b6000602082019050818103600083015261122281610f3b565b9050919050565b6000602082019050818103600083015261124281610f5e565b9050919050565b6000602082019050818103600083015261126281610f81565b9050919050565b6000602082019050818103600083015261128281610fa4565b9050919050565b600060208201905081810360008301526112a281610fc7565b9050919050565b600060208201905081810360008301526112c281610fea565b9050919050565b600060208201905081810360008301526112e28161100d565b9050919050565b6000602082019050818103600083015261130281611030565b9050919050565b6000602082019050818103600083015261132281611053565b9050919050565b6000602082019050818103600083015261134281611076565b9050919050565b6000602082019050818103600083015261136281611099565b9050919050565b600060208201905061137e60008301846110bc565b92915050565b600060608201905061139960008301866110bc565b6113a66020830185610f15565b6113b360408301846110bc565b949350505050565b600082825260208201905092915050565b60006113d782611406565b9050919050565b60006113e982611406565b9050919050565b60008115159050919050565b6000819050919050565b600073ffffffffffffffffffffffffffffffffffffffff82169050919050565b600074ffffffffffffffffffffffffffffffffffffffffff82169050919050565b6000819050919050565b6000819050919050565b600080fd5b7f54696d656c6f636b206578706972656400000000000000000000000000000000600082015250565b7f486173686c6f636b20646f6573206e6f74206d61746368000000000000000000600082015250565b7f4f6e6c792062757965722063616e207769746864726177000000000000000000600082015250565b7f54696d656c6f636b206d75737420626520696e20746865206675747572650000600082015250565b7f4f6e6c792073656c6c65722063616e20726566756e6400000000000000000000600082015250565b7f457363726f7720616c7265616479206578697374730000000000000000000000600082015250565b7f416d6f756e74206d7573742062652067726561746572207468616e2030000000600082015250565b7f54696d656c6f636b206e6f742065787069726564000000000000000000000000600082015250565b7f416c72656164792077697468647261776e000000000000000000000000000000600082015250565b7f416c726561647920726566756e64656400000000000000000000000000000000600082015250565b7f457363726f7720646f6573206e6f742065786973740000000000000000000000600082015250565b61162c81611426565b811461163757600080fd5b50565b611643816113fc565b811461164e57600080fd5b50565b61165a81611447565b811461166557600080fd5b5056fea26474726f6e582212202ff286a3be5d19ae21703a72fb6b602b7de8bf7748746c151c50688ca6c70a4864736f6c63430008060033",
  "source": "// SPDX-License-Identifier: MIT\npragma solidity ^0.8.0;\n\n/**\n * @title TronEscrow - Simplified HTLC for Tron\n * @notice Tron-compatible escrow contract for cross-chain atomic swaps\n */\ncontract TronEscrow {\n    struct Escrow {\n        address payable seller;\n        address payable buyer;\n        uint256 amount;\n        bytes32 hashlock;\n        uint256 timelock;\n        bool withdrawn;\n        bool refunded;\n        address token; // address(0) for TRX, otherwise TRC20 token\n    }\n\n    mapping(bytes32 => Escrow) public escrows;\n    \n    event EscrowCreated(\n        bytes32 indexed escrowId,\n        address indexed seller,\n        address indexed buyer,\n        uint256 amount,\n        bytes32 hashlock,\n        uint256 timelock\n    );\n    \n    event EscrowWithdrawn(bytes32 indexed escrowId, bytes32 preimage);\n    event EscrowRefunded(bytes32 indexed escrowId);\n\n    modifier escrowExists(bytes32 _escrowId) {\n        require(hasEscrow(_escrowId), \"Escrow does not exist\");\n        _;\n    }\n\n    modifier hashlockMatches(bytes32 _escrowId, bytes32 _preimage) {\n        require(\n            escrows[_escrowId].hashlock == keccak256(abi.encodePacked(_preimage)),\n            \"Hashlock does not match\"\n        );\n        _;\n    }\n\n    modifier withdrawable(bytes32 _escrowId) {\n        require(escrows[_escrowId].buyer == msg.sender, \"Only buyer can withdraw\");\n        require(escrows[_escrowId].withdrawn == false, \"Already withdrawn\");\n        require(escrows[_escrowId].refunded == false, \"Already refunded\");\n        require(block.timestamp <= escrows[_escrowId].timelock, \"Timelock expired\");\n        _;\n    }\n\n    modifier refundable(bytes32 _escrowId) {\n        require(escrows[_escrowId].seller == msg.sender, \"Only seller can refund\");\n        require(escrows[_escrowId].withdrawn == false, \"Already withdrawn\");\n        require(escrows[_escrowId].refunded == false, \"Already refunded\");\n        require(block.timestamp > escrows[_escrowId].timelock, \"Timelock not expired\");\n        _;\n    }\n\n    /**\n     * @notice Create new escrow (TRX)\n     */\n    function newEscrow(\n        bytes32 _escrowId,\n        address payable _buyer,\n        bytes32 _hashlock,\n        uint256 _timelock\n    ) external payable {\n        require(!hasEscrow(_escrowId), \"Escrow already exists\");\n        require(msg.value > 0, \"Amount must be greater than 0\");\n        require(_timelock > block.timestamp, \"Timelock must be in the future\");\n\n        escrows[_escrowId] = Escrow({\n            seller: payable(msg.sender),\n            buyer: _buyer,\n            amount: msg.value,\n            hashlock: _hashlock,\n            timelock: _timelock,\n            withdrawn: false,\n            refunded: false,\n            token: address(0) // TRX\n        });\n\n        emit EscrowCreated(_escrowId, msg.sender, _buyer, msg.value, _hashlock, _timelock);\n    }\n\n    /**\n     * @notice Withdraw from escrow with preimage\n     */\n    function withdraw(bytes32 _escrowId, bytes32 _preimage)\n        external\n        escrowExists(_escrowId)\n        hashlockMatches(_escrowId, _preimage)\n        withdrawable(_escrowId)\n    {\n        Escrow storage escrow = escrows[_escrowId];\n        escrow.withdrawn = true;\n        \n        escrow.buyer.transfer(escrow.amount);\n        emit EscrowWithdrawn(_escrowId, _preimage);\n    }\n\n    /**\n     * @notice Refund escrow after timelock expires\n     */\n    function refund(bytes32 _escrowId)\n        external\n        escrowExists(_escrowId)\n        refundable(_escrowId)\n    {\n        Escrow storage escrow = escrows[_escrowId];\n        escrow.refunded = true;\n        \n        escrow.seller.transfer(escrow.amount);\n        emit EscrowRefunded(_escrowId);\n    }\n\n    /**\n     * @notice Get escrow details\n     */\n    function getEscrow(bytes32 _escrowId)\n        external\n        view\n        returns (\n            address seller,\n            address buyer,\n            uint256 amount,\n            bytes32 hashlock,\n            uint256 timelock,\n            bool withdrawn,\n            bool refunded\n        )\n    {\n        Escrow storage escrow = escrows[_escrowId];\n        return (\n            escrow.seller,\n            escrow.buyer,\n            escrow.amount,\n            escrow.hashlock,\n            escrow.timelock,\n            escrow.withdrawn,\n            escrow.refunded\n        );\n    }\n\n    /**\n     * @notice Check if escrow exists\n     */\n    function hasEscrow(bytes32 _escrowId) public view returns (bool) {\n        return escrows[_escrowId].seller != address(0);\n    }\n\n    /**\n     * @notice Get contract balance\n     */\n    function getContractBalance() external view returns (uint256) {\n        return address(this).balance;\n    }\n}",
  "sourcePath": "/Users/gabrielantonyxaviour/Documents/projects/unite-defi/resolver-branches/tron-integration/tron-contracts/tron-contracts/contracts/TronEscrow.sol",
  "compiler": {
    "name": "solc",
    "version": "0.8.6+commit.0e36fba0.mod.Emscripten.clang"
  },
  "schemaVersion": "2.0.1",
  "updatedAt": "2025-07-27T13:34:11.410Z"
}